:1000000082C000009FC000009DC000009BC0000097
:1000100099C0000097C0000095C0000093C0000088
:1000200091C000008FC000008DC000008BC0000098
:1000300089C00000F8C0000085C0000083C0000037
:1000400081C000007FC000007DC000007BC00000B8
:1000500079C0000077C0000075C0000073C00000C8
:1000600071C000006FC000006DC000006BC00000D8
:1000700069C0000067C0000065C0000063C00000E8
:1000800061C000005FC000005DC0000095039A03DE
:10009000A703BF03D403EC030704230447044A0463
:1000A0005D0450045D045D045D045604830488040B
:1000B0009604B404C904F204080599059E05B50523
:1000C0001D06610622064C06370666067506B10651
:1000D0002007DE06E906EF060707F5060107FB061F
:1000E0000D07130718074307480756077307B90793
:1000F000F307160824086E0848084D0852086E08D1
:100100005D086208670811241FBECFEFD0E4DEBF90
:10011000CDBF12E0A0E0B1E0EAE7FCE100E00BBFF8
:1001200002C007900D92A438B107D9F722E0A4E8E5
:10013000B2E001C01D92AB3FB207E1F70E94920905
:100140000C943B0E5DCFCF93DF9300D000D0CDB7A2
:10015000DEB769837A838B839C8389819A81AB81A3
:10016000BC818093000190930101A0930201B093A0
:1001700003018091000190910101A0910201B091D1
:1001800003018093850290938602A0938702B09327
:10019000880200000F900F900F900F90DF91CF9189
:1001A0000895CF93DF93CDB7DEB781E890E02BE0E1
:1001B000FC01208388E890E02DE730E0FC013183EA
:1001C00020838FE690E022E0FC01208384E890E029
:1001D000FC01118210828091000190910101A09197
:1001E0000201B09103018093850290938602A0934F
:1001F0008702B09388028FE590E02FE530E0F901A7
:1002000020812068FC0120830000DF91CF910895B8
:10021000CF93DF93CDB7DEB781E0809384020000F7
:10022000DF91CF9108951F920F9200905F000F927F
:10023000112400905B000F922F933F934F935F9395
:100240006F937F938F939F93AF93BF93EF93FF939E
:10025000CF93DF93CDB7DEB7809185029091860270
:10026000A0918702B09188020197A109B1098093FA
:10027000850290938602A0938702B09388028091B2
:10028000850290918602A0918702B0918802892B05
:100290008A2B8B2B89F4BCDF8091000190910101A6
:1002A000A0910201B0910301809385029093860290
:1002B000A0938702B09388020000DF91CF91FF9155
:1002C000EF91BF91AF919F918F917F916F915F91CE
:1002D0004F913F912F910F9000925B000F900092F1
:1002E0005F000F901F901895CF93DF93CDB7DEB7C7
:1002F00081E01AD00000DF91CF910895CF93DF9372
:10030000CDB7DEB784E690E0ACD088E30DD086E0D0
:100310000BD08FE009D081E007D08AE090E0A1D037
:100320000000DF91CF910895CF93DF931F92CDB757
:10033000DEB789838BE290E02BE230E0F901208187
:100340002F7BFC01208388E290E02981FC0120833F
:100350008BE290E02BE230E0F90120812068FC0183
:10036000208300008BE290E02BE230E0F901208155
:100370002F77FC01208382E090E073D000000F9083
:10038000DF91CF910895CF93DF931F92CDB7DEB762
:1003900089838BE290E02BE230E0F9012081206438
:1003A000FC01208388E290E02981FC0120838BE21C
:1003B00090E02BE230E0F90120812068FC012083ED
:1003C00000008BE290E02BE230E0F90120812F77F2
:1003D000FC01208381E090E044D000000F90DF9189
:1003E000CF910895CF93DF9300D000D0CDB7DEB783
:1003F0008A837C836B8378DF8A8189830FC08981BC
:1004000091E0980F998318D08B819C819C012F5F7C
:100410003F4F3C832B83FC018081B5DF8B819C8126
:10042000FC018081882359F700000F900F900F90F6
:100430000F90DF91CF910895CF93DF931F92CDB7A7
:10044000DEB789838981813120F4898181586CDF0D
:1004500003C08981815568DF00000F90DF91CF9143
:100460000895CF93DF9300D000D000D0CDB7DEB792
:100470009E838D831A82198213C01C821B8206C040
:1004800000008B819C8101969C838B838B819C8156
:1004900087309340ACF389819A8101969A8389834E
:1004A00029813A818D819E812817390734F3000014
:1004B00026960FB6F894DEBF0FBECDBFDF91CF9169
:1004C0000895CF93DF93CDB7DEB72C970FB6F8948E
:1004D000DEBF0FBECDBF6D837E838F839887298754
:1004E0003A874B875C878D819E81AF81B88529854E
:1004F0003A854B855C85BC01CD010E94100EDC0164
:10050000CB0189839A83AB83BC8389819A81AB8138
:10051000BC81892B8A2B8B2B29F489859A85AB8505
:10052000BC8511C089859A85AB85BC858D839E83EA
:10053000AF83B88789819A81AB81BC8189879A878B
:10054000AB87BC87D0CFBC01CD012C960FB6F894F9
:10055000DEBF0FBECDBFDF91CF9108950F931F93E4
:10056000CF93DF9300D000D0CDB7DEB769837A8315
:100570008B839C838091890290918A02A0918B0247
:10058000B0918C029C01AD0169817A818B819C8143
:100590000E94970C882309F477C020E030E0A9017D
:1005A00069817A818B819C810E94970C882351F408
:1005B00081E990E021E930E0F90120812870FC0117
:1005C000208309C081E990E021E930E0F901208130
:1005D0002360FC01208328E539E344E75FE3698178
:1005E0007A818B819C810E94970C882344F488E94E
:1005F00090E02FEF3FEFFC013183208334C020E0F7
:1006000034E244EF56E469817A818B819C810E94B7
:10061000A90D181634F488E990E0FC0111821082CB
:1006200022C008E910E020E030E040E053E46981B6
:100630007A818B819C810E94AD0DDC01CB019C01F4
:10064000AD0160E074E284EF9AE40E949B0CDC014F
:10065000CB01BC01CD010E94030DDC01CB01019750
:10066000F8019183808384E990E0FC01118210827B
:1006700089819A81AB81BC818093890290938A029F
:10068000A0938B02B0938C0200000F900F900F90FC
:100690000F90DF91CF911F910F910895CF93DF932A
:1006A000CDB7DEB780E990E020E4FC01208381E94A
:1006B00090E02BE0FC01208360E070E0CB014EDF96
:1006C0000000DF91CF910895CF93DF9300D000D049
:1006D000CDB7DEB79C838B8380E290E0FC01808104
:1006E000882F90E08170992721E0892B09F020E084
:1006F000298380E290E0FC018081809582708A836A
:100700008B819C81092E000CAA0BBB0B40E050E0B2
:1007100027E030E0841B950B2817390708F4A0C0A8
:100720008A5B9F4FFC010C94320E81E090E09C8329
:100730008B8399C08981882329F082E090E09C8393
:100740008B8391C081E090E09C838B838CC08981F6
:10075000882329F483E090E09C838B8384C0898183
:10076000882341F08A81882329F081E090E09C83EE
:100770008B8379C082E090E09C838B8374C08A81F4
:10078000882329F085E090E09C838B836CC089816D
:10079000882329F084E090E09C838B8364C083E00D
:1007A00090E09C838B835FC08981882329F481E05A
:1007B00090E09C838B8357C08981882341F08A8194
:1007C000882329F083E090E09C838B834CC084E0F5
:1007D00090E09C838B8347C08A81882341F481E029
:1007E0008093F80286E090E09C838B833CC08A81F2
:1007F000882341F08981882329F083E090E09C835D
:100800008B8331C085E090E09C838B832CC08091EA
:10081000F802882321F08091EC02882329F483E0F8
:1008200090E09C838B831FC08A81882339F01092CB
:10083000F80287E090E09C838B8315C086E090E00F
:100840009C838B8310C08A81882329F483E090E005
:100850009C838B8308C087E090E09C838B8303C0DC
:100860001C821B8200008B819C81092E000CAA0B2C
:10087000BB0B40E050E027E030E0841B950B2817CD
:100880003907C8F0825B9F4FFC010C94320E109226
:10089000F80214C081E08093E0021092F7020EC0CB
:1008A00081E08093F7021092E00208C065EE71E0EB
:1008B00080E098DD03C0000001C000008B819C81B6
:1008C0000F900F900F900F90DF91CF910895CF93DD
:1008D000DF9300D0CDB7DEB79A83898389819A816F
:1008E000092E000CAA0BBB0B40E050E026E030E0E4
:1008F000841B950B2817390708F49CC08A5A9F4F10
:10090000FC010C94320E81E090E09A83898396C0BA
:100910008091F802813029F482E090E09A83898303
:100920008DC081E090E09A83898388C08091EF0236
:10093000882339F41092EF0283E090E09A83898350
:100940007DC08091F802882329F481E090E09A83A9
:10095000898374C08091EF0281508093EF0282E01E
:1009600090E09A8389836AC08091EF02883038F0E2
:100970001092EF0284E090E09A8389835FC08091B7
:10098000EF028F5F8093EF0283E090E09A83898388
:1009900055C08091F802882321F481E090E09A8389
:1009A00089838091EA02882351F08091D5028130B9
:1009B00009F043C085E090E09A8389833EC080912E
:1009C000EA02882329F486E090E09A83898335C07F
:1009D0008091EA0281508093EA0284E090E09A8359
:1009E00089832BC08091F802882341F08091EB022B
:1009F000882321F08091D502882329F481E090E0BA
:100A00009A8389831BC085E090E09A83898316C00E
:100A10008091F802882321F08091F302882329F441
:100A200081E090E09A83898309C086E090E09A8310
:100A3000898304C01A82198201C0000089819A81C9
:100A40008230910581F1833091052CF4009769F192
:100A5000019751F02BC085309105C9F08630910582
:100A6000E1F0049781F022C088E78093EA0284E4F1
:100A70008093EF021092EB021092F3021092EC02BC
:100A80001092D50213C081E08093EC020FC081E088
:100A90008093EB021092EC0209C081E08093F30294
:100AA0001092EC0203C0000001C0000089819A810D
:100AB0000F900F90DF91CF910895CF93DF9300D0E7
:100AC000CDB7DEB79A83898380E290E0FC01808114
:100AD000809584708093ED0280E290E0FC0180813B
:100AE000809588708093D00280E290E0FC01808144
:100AF000809580718093F00280E290E0FC0180811B
:100B0000809580728093DA0289819A81092E000C87
:100B1000AA0BBB0B40E050E02AE030E0841B950BB1
:100B20002817390708F432C1835A9F4FFC010C94EF
:100B3000320E81E090E09A8389832CC18091EC028F
:100B4000813071F48091F802813051F485E290E0B7
:100B500025E0FC01208382E090E09A8389831AC11A
:100B600081E090E09A83898315C18091EC0288230B
:100B700021F08091F802882321F481E090E09A83AB
:100B800089838091E102883238F01092E10289E095
:100B900090E09A838983FEC08091E1028F5F809309
:100BA000E1028091DA02882371F08091F0028823BB
:100BB00029F085E090E09A838983ECC083E090E09F
:100BC0009A838983E7C08091D002882371F0809155
:100BD000F002882329F086E090E09A838983DAC0C6
:100BE00084E090E09A838983D5C08091F0028823C5
:100BF00069F08091D002882349F48091DA02882339
:100C000029F488E090E09A83898316C08091D0020D
:100C1000882369F08091F002882349F08091DA02FC
:100C2000882329F087E090E09A83898305C082E0D9
:100C300090E09A838983AEC0ADC082E090E09A8351
:100C40008983A8C08091E402833038F01092E402D6
:100C500086E090E09A8389839DC08091E4028F5F53
:100C60008093E40282E090E09A83898393C080912C
:100C7000D102843038F01092D10282E090E09A8361
:100C8000898388C08091D1028F5F8093D10287E0F1
:100C900090E09A8389837EC08091DF02833038F0B0
:100CA0001092DF0285E090E09A83898373C080917F
:100CB000DF028F5F8093DF0282E090E09A83898376
:100CC00069C082E090E09A83898364C08091EC02DD
:100CD000813009F05EC08091F802813009F059C07E
:100CE00086E090E09A83898354C08091ED02882346
:100CF00099F08091E2028F3050F01092E20281E090
:100D00008093D50281E090E09A83898305C0809129
:100D1000E2028F5F8093E2028091E9028230B8F0B4
:100D20001092E9028091D402843050F48091D40270
:100D30008F5F8093D4028AE090E09A8389832AC0EF
:100D40001092D40282E090E09A83898323C080913C
:100D5000E9028F5F8093E90289E090E09A838983BA
:100D600019C08091E902833038F01092E90289E0DD
:100D700090E09A8389830EC08091E9028F5F80930F
:100D8000E9028AE090E09A83898304C01A8219827A
:100D900001C0000089819A81092E000CAA0BBB0BAF
:100DA00040E050E02AE030E0841B950B281739071B
:100DB00008F444C088599F4FFC0154C785E290E075
:100DC000FC0110821092D4021092E2021092E90209
:100DD00038C085E290E025E0FC01208332C085E246
:100DE00090E021E0FC0120832CC085E290E029E026
:100DF000FC01208326C085E290E026E0FC012083F0
:100E000020C085E290E026E0FC0120831AC085E244
:100E100090E024E0FC01208314C085E290E02AE009
:100E2000FC0120830EC085E290E0FC01108209C025
:100E300085E290E026E0FC01208303C0000001C0B1
:100E4000000089819A810F900F90DF91CF910895D2
:100E5000CF93DF9300D0CDB7DEB79A8389838981A2
:100E60009A81092E000CAA0BBB0B40E050E027E052
:100E700030E0841B950B2817390708F4F3C08D5810
:100E80009F4FFC01EFC681E090E09A838983EDC01B
:100E90008091F702813029F482E090E09A8389837F
:100EA000E4C081E090E09A838983DFC08091E00212
:100EB000813029F481E090E09A838983D6C08091C3
:100EC000F802813059F48AE090E09093DC0280933C
:100ED000DB0283E090E09A838983C7C082E090E0E0
:100EE0009A838983C2C08091F802882321F482E02A
:100EF00090E09A8389838091EF028823D1F08091DA
:100F0000CF028430B0F48091CF02823030F460E0C0
:100F100070E08CE593E422DB0CC08091CF0282303C
:100F200040F08091CF02843020F460E070E0CB018B
:100F300015DB8091CF02843038F08091EF02882356
:100F400019F01092CF0291C08091EF02882339F4FA
:100F50001092CF0284E090E09A83898386C08091CA
:100F6000CF028F5F8093CF0283E090E09A838983E2
:100F70007CC08091F802882321F482E090E09A837B
:100F800089838091EF02883020F48091EC028130D7
:100F900039F41092EF0285E090E09A83898365C06E
:100FA0008091EF02843050F460E070E08CED93E4C7
:100FB000D5DA67EF71E081E015DA10C08091EF02B9
:100FC000843060F08091EF02883040F460E070E09F
:100FD000CB01C4DA64E072E081E004DA84E090E0FE
:100FE0009A83898342C08091F802882321F482E0A9
:100FF00090E09A8389838091EB02813039F41092DA
:10100000CF0286E090E09A8389832FC08091F3021B
:10101000813039F41092CF0286E090E09A83898380
:1010200024C085E090E09A8389831FC08091EB0201
:10103000882329F482E090E09A83898316C086E0B1
:1010400090E09A83898311C08091F302882329F468
:1010500082E090E09A83898308C087E090E09A83D9
:10106000898303C01A821982000089819A81092E1E
:10107000000CAA0BBB0B40E050E027E030E0841BE3
:10108000950B2817390740F185589F4FFC01EAC599
:1010900061E172E081E0A6D922C06AE172E081E0FC
:1010A000A1D91DC060E372E081E09CD98091DB0290
:1010B0009091DC02805D67D912C06EE372E081E03E
:1010C00091D90DC06EE472E081E08CD908C061E670
:1010D00072E081E087D903C0000001C0000089816F
:1010E0009A810F900F90DF91CF910895CF93DF9366
:1010F00000D0CDB7DEB79A83898389819A81813008
:10110000910559F082309105D1F0892B09F052C038
:1011100081E090E09A83898350C08091EB02813016
:1011200049F48091EC02882329F482E090E09A83CC
:10113000898343C081E090E09A8389833EC0809197
:10114000D2029091D3028C589E4FFC0190818091E5
:10115000DE02891760F01092DE028091D202909137
:10116000D30201969093D3028093D20205C080915E
:10117000DE028F5F8093DE028091D2029091D302D3
:101180004C979CF01092D3021092D20260E070E073
:10119000CB01E4D91092F8021092EB021092D50222
:1011A00081E090E09A83898308C082E090E09A838E
:1011B000898303C01A821982000089819A81813053
:1011C0009105C9F08230910519F0892BB1F016C054
:1011D0008091D2029091D302880F991F880F991F96
:1011E0008C5F9E4FFC0180819181A281B381BC0103
:1011F000CD01B4D903C0000001C0000089819A81EB
:101200000F900F90DF91CF910895CF93DF9300D08F
:10121000CDB7DEB79A83898389819A818130910520
:1012200059F082309105D1F0892B09F050C081E04E
:1012300090E09A8389834EC08091F302813049F413
:101240008091EC02882329F482E090E09A838983DC
:1012500041C081E090E09A8389833CC08091D802AC
:101260009091D9028C529E4FFC0190818091E302B3
:10127000891760F01092E3028091D8029091D90210
:1012800001969093D9028093D80205C08091E30221
:101290008F5F8093E3028091D8029091D9024197A9
:1012A0008CF01092D9021092D80260E070E0CB016D
:1012B00055D91092F8021092F30281E090E09A83DF
:1012C000898308C082E090E09A83898303C01A82F0
:1012D0001982000089819A8181309105C9F082309C
:1012E000910519F0892BB1F016C08091D802909128
:1012F000D902880F991F880F991F80579E4FFC01B4
:1013000080819181A281B381BC01CD0127D903C025
:10131000000001C0000089819A810F900F90DF9139
:10132000CF9108950F931F93CF93DF93CDB7DEB77F
:10133000C854D1090FB6F894DEBF0FBECDBF81E20D
:1013400090E0FC01108282E290E02FEFFC0120830C
:1013500084E290E02FEFFC01208385E290E0FC0125
:10136000108287E290E02FEFFC01208388E290E07A
:10137000FC0110828AE290E02FEFFC0120838BE2D7
:1013800090E0FC01108284EF91E0A0E0B0E08B835C
:101390009C83AD83BE838AEF90E0A0E0B0E08F83B2
:1013A0009887A987BA878AEF90E0A0E0B0E08B87A2
:1013B0009C87AD87BE878AEF90E0A0E0B0E08F8782
:1013C000988BA98BBA8B84E490E0A0E0B0E08B8B83
:1013D0009C8BAD8BBE8B8AE490E0A0E0B0E08F8B5D
:1013E000988FA98FBA8F81E090E0A0E0B0E08B8F5A
:1013F0009C8FAD8FBE8F2F81388549855A858B8113
:101400009C81AD81BE81BC01CD015BD8DC01CB01EB
:101410008B8F9C8FAD8FBE8F2B853C854D855E85D8
:101420008B8D9C8DAD8DBE8DBC01CD014AD8DC016C
:10143000CB018B8F9C8FAD8FBE8F2F8538894989CB
:101440005A898B8D9C8DAD8DBE8DBC01CD0139D857
:10145000DC01CB018B8F9C8FAD8FBE8F2B893C899C
:101460004D895E898B8D9C8DAD8DBE8DBC01CD016E
:1014700028D8DC01CB018B8F9C8FAD8FBE8F2F893D
:10148000388D498D5A8D8B8D9C8DAD8DBE8DBC0157
:10149000CD0117D8DC01CB018B8F9C8FAD8FBE8F18
:1014A0008B8D9C8DAD8DBE8D8F8F98A3A9A3BAA374
:1014B0008B819C81AD81BE812F8D38A149A15AA11C
:1014C000BC01CD01ADD3DA01C9018BA39CA3ADA3AF
:1014D000BEA38F819885A985BA852F8D38A149A192
:1014E0005AA1BC01CD019CD3DA01C9018FA398A7F1
:1014F000A9A7BAA78B859C85AD85BE852F8D38A100
:1015000049A15AA1BC01CD018BD3DA01C9018BA736
:101510009CA7ADA7BEA78F859889A989BA892F8D69
:1015200038A149A15AA1BC01CD017AD3DA01C90180
:101530008FA798ABA9ABBAAB8B899C89AD89BE89C3
:101540002F8D38A149A15AA1BC01CD0169D3DA017F
:10155000C9018BAB9CABADABBEAB8F89988DA98D10
:10156000BA8D2F8D38A149A15AA1BC01CD0158D304
:10157000DA01C9018FAB98AFA9AFBAAF8CE0E8E749
:10158000F2E0DE01DD9601900D928A95E1F786E0AA
:1015900090E09CAF8BAF8FEF80938D028BA19CA1CD
:1015A000ADA1BEA180938E0290938F02A093900272
:1015B000B09391028BA19CA1ADA1BEA18093920298
:1015C00090939302A0939402B093950284E693E0E3
:1015D00090939702809396028FEF809398028FA149
:1015E00098A5A9A5BAA58093990290939A02A09371
:1015F0009B02B0939C028FA198A5A9A5BAA5809340
:101600009D0290939E02A0939F02B093A00287E652
:1016100094E09093A2028093A1028FEF8093A302A3
:101620008BA59CA5ADA5BEA58093A4029093A50211
:10163000A093A602B093A7028BA59CA5ADA5BEA5BD
:101640008093A8029093A902A093AA02B093AB0240
:101650008DE595E09093AD028093AC028FEF80937F
:10166000AE028FA598A9A9A9BAA98093AF029093B9
:10167000B002A093B102B093B2028FA598A9A9A914
:10168000BAA98093B3029093B402A093B502B09329
:10169000B60288E297E09093B8028093B7028FEF8A
:1016A0008093B9028BA99CA9ADA9BEA98093BA0267
:1016B0009093BB02A093BC02B093BD028BA99CA9DE
:1016C000ADA9BEA98093BE029093BF02A093C002B1
:1016D000B093C10286E798E09093C3028093C20260
:1016E0008FEF8093C4028FA998ADA9ADBAAD809356
:1016F000C5029093C602A093C702B093C8028FA9F7
:1017000098ADA9ADBAAD8093C9029093CA02A093D7
:10171000CB02B093CC0285E099E09093CE02809307
:10172000CD028F8D98A1A9A1BAA1BC01CD010E94C3
:10173000A3000E94D1000E947E010E944E031092DD
:10174000E6021092F80288E78093EA0284E480932C
:10175000EF021092EC021092D1021092E402109269
:10176000DF021092EB021092F3021092CF0210925D
:10177000F5021092DE021092E3021092F202109231
:10178000F1021092D3021092D2021092D90210925A
:10179000D8021092E5021092FA021092F902109209
:1017A000E8021092E7021092F6021092EE021092F6
:1017B000DD021092D7021092D6021092F40210921B
:1017C000E1021092D5021092D4021092E20210921D
:1017D000E9021A8219829BC089819A81880F991F18
:1017E0009E012F5F3F4F820F931FCC96FC0180819B
:1017F0009181FC01258136814781508589819A81BB
:10180000880F991FBE016F5F7F4F860F971FCC9681
:10181000FC0180819181FC0181819281A381B4814D
:10182000281739074A075B0709F045C089819A8163
:10183000880F991F9E012F5F3F4F820F931FCC96F9
:10184000FC010081118189819A81880F991F9E0175
:101850002F5F3F4F820F931FCC96FC0180819181B7
:10186000FC012185328589819A81880F991FAE01FB
:101870004F5F5F4F840F951FCC96FC018081918153
:10188000FC018081082E000C990BF9010995F801E3
:10189000808389819A81880F991F9E012F5F3F4F16
:1018A000820F931FCC96FC0180819181FC011582EF
:1018B00016821782108689819A81880F991F9E014E
:1018C0002F5F3F4F820F931FCC96FC012081318107
:1018D00089819A81880F991FAE014F5F5F4F840FF6
:1018E000951FCC96FC0180819181FC0185819681B8
:1018F000A781B0850196A11DB11DF901858396834D
:10190000A783B08789819A8101969A8389832981E7
:101910003A818BAD9CAD2817390708F45DCF0000E4
:10192000809184028823E1F31092840252CF9CD0EC
:1019300008F481E008950CD0D2C0CAD040F0C1D0E4
:1019400030F021F45F3F19F0B3C05111FCC0B6C0B4
:10195000D7D098F39923C9F35523B1F3951B550BB1
:10196000BB27AA2762177307840738F09F5F5F4F72
:10197000220F331F441FAA1FA9F333D00E2E3AF0B3
:10198000E0E830D091505040E695001CCAF729D0CD
:10199000FE2F27D0660F771F881FBB1F261737071C
:1019A0004807AB07B0E809F0BB0B802DBF01FF274C
:1019B00093585F4F2AF09E3F510568F079C0C3C02D
:1019C0005F3FECF3983EDCF3869577956795B79586
:1019D000F7959F5FC9F7880F911D9695879597F9A1
:1019E0000895E1E0660F771F881FBB1F621773071A
:1019F0008407BA0720F0621B730B840BBA0BEE1F2F
:101A000088F7E095089504D06894B1119CC00895BA
:101A10007FD088F09F5790F0B92F9927B751A0F049
:101A2000D1F0660F771F881F991F1AF0BA95C9F772
:101A300012C0B13081F086D0B1E0089583C0672F25
:101A4000782F8827B85F39F0B93FCCF38695779522
:101A50006795B395D9F73EF490958095709561950B
:101A60007F4F8F4F9F4F0895990F0008550FAA0B76
:101A7000E0E8FEEF16161706E807F907C0F01216A1
:101A80001306E407F50798F0621B730B840B950BA4
:101A900039F40A2661F0232B242B252B21F40895F9
:101AA0000A2609F4A140A6958FEF811D811D089596
:101AB00097F99F6780E870E060E008959FEF80EC01
:101AC000089500240A9416161706180609060895A4
:101AD00000240A9412161306140605060895092E0A
:101AE0000394000C11F4882352F0BB0F40F4BF2B79
:101AF00011F460FF04C06F5F7F4F8F4F9F4F0895B9
:101B000057FD9058440F551F59F05F3F71F04795AE
:101B1000880F97FB991F61F09F3F79F08795089593
:101B2000121613061406551FF2CF4695F1DF08C0B2
:101B3000161617061806991FF1CF869571056105CF
:101B400008940895E894BB2766277727CB0197F977
:101B500008958ADF08F48FEF08950BD0C0CFB1DF6E
:101B600028F0B6DF18F0952309F0A2CFA7CF1124F3
:101B7000EACFC6DFA0F3959FD1F3950F50E0551F34
:101B8000629FF001729FBB27F00DB11D639FAA27D2
:101B9000F00DB11DAA1F649F6627B00DA11D661F21
:101BA000829F2227B00DA11D621F739FB00DA11D42
:101BB000621F839FA00D611D221F749F3327A00DFC
:101BC000611D231F849F600D211D822F762F6A2F98
:101BD00011249F5750408AF0E1F088234AF0EE0F1D
:101BE000FF1FBB1F661F771F881F91505040A9F72A
:101BF0009E3F510570F05CCFA6CF5F3FECF3983E5F
:101C0000DCF3869577956795B795F795E7959F5F90
:101C1000C1F7FE2B880F911D9695879597F908952A
:101C2000A1E21A2EAA1BBB1BFD010DC0AA1FBB1FE0
:101C3000EE1FFF1FA217B307E407F50720F0A21B52
:101C4000B30BE40BF50B661F771F881F991F1A94BF
:101C500069F760957095809590959B01AC01BD01E9
:101C6000CF010895EE0FFF1F0024001C0BBE07904C
:0A1C7000F691E02D0994F894FFCFDF
:101C7A000100000000004443A4D08243A4D0A4433E
:101C8A000000C44300D0024400D024445CFF434413
:101C9A0000D0244466A64F43A4D08243A4909B4319
:101CAA0066A6CF4300D0024400901B440AA74F44C3
:101CBA0000901B447B1469437BD49243719DAE43CD
:101CCA007B14E9431FD51244719D2E441F156944A4
:101CDA001F1569441F1569441F15694400D08244C1
:101CEA0000000000010101010101030301010101DA
:101CFA0001010303010101010101030101010606BA
:101D0A0000D0024400000000000000000000C443AC
:101D1A000000000000000000A4D0A4430000DC433F
:101D2A00A4F0F6430000DC4366A6CF437B14E943E4
:101D3A0066A6CF430000C443719DAE430000C4436E
:101D4A000000000001010101010102020202020277
:101D5A00020101040652656C6561736520746F2087
:101D6A0072657365742E005265616479206F722002
:101D7A006E6F740048657265204920636F6D652136
:101D8A00005A5A5A5A5A2E2E2E0048656C6C6F21E8
:101D9A00204C6574277320202020706C6179210003
:101DAA005374617274696E6720696E3A20005768CD
:101DBA006572652061726520796F753F3F00492021
:101DCA00666F756E6420796F7521212120203A444F
:101DDA0000436F756C646E27742066696E642020F8
:101DEA0020796F75203A28008D029802A302AE026C
:041DFA00B902C40264
:04000005008002F87D
:00000001FF
